:020000040800F2
:1000000058050020010100080D2700086D24000894
:1000100009270008DD070008732D00080000000014
:100020000000000000000000000000004D2A000851
:100030002908000800000000212A00084F2A0008B3
:100040001B0100081B0100081B0100081B01000820
:100050001B0100081B0100081B0100081B01000810
:100060001B0100081B0100081B01000819080008FB
:100070001B0100081B0100081B0100081B010008F0
:100080001B0100081B010008890600081B0100086D
:100090001B0100081B0100081B0100081B010008D0
:1000A0001B0100081B0100081B0100081B010008C0
:1000B0001B0100081B0100081B0100081B010008B0
:1000C0001B0100081B0100081B0100081B010008A0
:1000D0001B0100081B0100081B0100081B01000890
:1000E0001B0100081B0100081B010008DFF80CD0F1
:1000F00000F03AFA00480047913B000858050020FC
:100100000648804706480047FEE7FEE7FEE7FEE7B1
:10011000FEE7FEE7FEE7FEE7FEE7FEE7DB2A000874
:10012000ED000008202A04DB203A21FA02F0002129
:10013000704721FA02F3D040C2F1200291400843F7
:1001400019467047D2B201E000F8012B491EFBD2DC
:1001500070470022F6E710B513460A4604461946D2
:10016000FFF7F0FF204610BD30B50B4601460020DA
:100170002022012409E021FA02F59D4205D303FA69
:1001800002F5491B04FA02F52844151EA2F10102EA
:10019000F1DC30BD2DE9F05F0546002092469B461C
:1001A00088460646814640241BE02846414647468D
:1001B0002246FFF7B7FF53465A46C01A914110D363
:1001C00011461846224600F0E1F92D1A67EB0108A6
:1001D0004F4622460120002100F0D8F917EB000914
:1001E0004E41201EA4F10104DFDC484631462A4678
:1001F0004346BDE8F09F2DE9FE4F804681EA0300AB
:10020000C00F0C46009021F0004123F00045B8EBF0
:100210000200A94105D24046214690461C460B46A5
:10022000024623F00040104347D0270DC7F30A00D1
:10023000C3F30A510290401A019040286BDAC3F3CD
:10024000130040F4801B0098924620B10023D2EBAB
:10025000030A63EB0B0B01985946C0F1400250466C
:1002600000F094F906460D4650465946019A00F0B2
:100270009CF910EB08006141002487EA115284EADE
:10028000E7731A4340D0009A62B3019A012A4FEAF9
:10029000075215DC001B61EB02014FF0004202EA3D
:1002A0000752CDE90042001C41F5801132462B4631
:1002B00000F09CF903B0BDE8F08F40462146F9E715
:1002C000001B61EB0201001C41F5801300185B412B
:1002D0002018A2F5001747EB030140EAD570B619C4
:1002E0006D4111E06D084FEA360645EAC0754FEAE8
:1002F0000752001B61EB0201001C41F58011490807
:100300004FEA30000019514132462B4603B0BDE898
:10031000F04F00F05CB90098012240000023D0EBC0
:10032000020263EBE073009821464FEAE074B8EBF9
:10033000000061EB0401E9E783F000435BE781F033
:10034000004158E72DE9FE4F81EA030404F0004420
:1003500021F0004100944FF0000B23F0004350EADD
:1003600001045ED052EA03045BD0C3F30A54C1F324
:100370000A552C44A4F2F3340194A0FB0254C1F3B7
:10038000130141F48011C3F3130343F4801301FB01
:10039000024400FB034E840A970A44EA815447EA68
:1003A0008357A4FB076802958D0A05FB07854FEA72
:1003B000932C04FB0C542705029D4FEA065847EA8C
:1003C0001637B5EB08056EEB070C870E920E47EA61
:1003D000811742EA8312A7FB0201B6EB0B0164EB23
:1003E00000042B0D43EA0C335E1844EB1C50DA4634
:1003F0005146E7FB0201C5F313044FEA0B3343EA0E
:1004000014534FEA0432019C43EA0603A4F10C049E
:100410000294009CCDE900B400F0E8F803B0BDE818
:10042000F08F00200146F9E72DE9F04D81EA030441
:1004300004F0004B21F0004514464FF0000A23F071
:10044000004150EA050220D054EA01021DD0C5F354
:100450000A570246C5F31303C1F31300C1F30A564A
:1004600040F4801543F48013A7EB0608101BD64612
:1004700008F2FD3873EB050002D308F1010801E032
:1004800092185B41B8F1000F03DA00200146BDE885
:10049000F08D00204FF48011064684460EE0171BB5
:1004A00073EB050705D3121B63EB050306434CEA08
:1004B000010C49084FEA300092185B4150EA0107ED
:1004C000EDD152EA030012D082EA040083EA05016A
:1004D000084305D0101BAB4106D20122002306E0E1
:1004E00000224FF0004302E06FF0010253101AEBBC
:1004F00006004CEB085110EB0A0041EB0B01BDE884
:10050000F04D00F064B8C1F30A52C1F3130140F298
:10051000FF3341F480119A4202DA0020014670470D
:1005200040F233439A42A2F2334202DC5242FFF7D6
:10053000F9BD00F02BB8000030B5041E71F10004C5
:1005400004DB4FF00044404264EB0101141E73F1E0
:10055000000405DB1C464FF00043524263EB0403EA
:10056000994208BF904230BD064C074D06E0E06856
:1005700040F0010394E8070098471034AC42F6D3EA
:10058000FFF7B8FDFC4500081C460008202A04DBE4
:10059000203A00FA02F1002070479140C2F1200396
:1005A00020FA03F3194390407047202A06DBCB174B
:1005B000203A41FA02F043EAE07306E041FA02F31E
:1005C000D040C2F12002914008431946704710B54F
:1005D000141E73F1000408DA401C41F10001921866
:1005E0005B411A4301D120F0010010BD2DE9F04D0F
:1005F00092469B4611B1B1FA81F202E0B0FA80F264
:1006000020329046FFF7C2FF04460F4640EA0A0038
:1006100041EA0B0153465A46084313D0114653EAA8
:10062000010019D0C8F140025046FFF77BFD054696
:100630000E46504659464246FFF7A8FF084305D0EC
:10064000012004E020463946BDE8F08D0020054336
:1006500046EAE0762C4337430A986305E40AA0EBA8
:1006600008000022FD0A44EA47540A3002D500205F
:100670000146E9E7010510196941DDE9084500195E
:100680006941BDE8F04DA2E710B5024800F087F9D6
:1006900010BD00009800002070B5044600252068B9
:1006A000806800F0010018B32068806820F0010025
:1006B0002168886000F018FF054613E000F014FF81
:1006C000401B02280ED92068806800F0010048B164
:1006D000A06A40F01000A062E06A40F00100E06211
:1006E000012070BD2068806800F001000028E5D17D
:1006F0000020F6E738B50446002500200090206869
:10070000806800F0010078BB2068806840F001003C
:1007100021688860194800681949B0FBF1F0009021
:1007200002E00098401E009000980028F9D100F0E7
:10073000DBFE054619E000F0D7FE401B022814D965
:100740002068806800F0010078B9A06A40F01000CD
:10075000A062E06A40F00100E06200BF002084F87F
:10076000240000BF012038BD05E02068806800F04B
:1007700001000028DFD00020F5E700000C00002079
:1007800040420F0010B54FF48051034800F09EFE28
:100790000446204610BD0000000C014000B585B0A5
:1007A00000BF0C48806940F008000A49886108468B
:1007B000806900F00800009000BF00BF881401901D
:1007C000002002900220039001A9034800F0EEFCF3
:1007D00005B000BD00100240000C014000BFFEE764
:1007E00010B50A4800780A2190FBF1F201FB1200D3
:1007F00018B90749074803F056F80A2002F094FF99
:1008000002480078401C0149087010BD900000208B
:10081000920000209100002010B5024800F0C4FBB7
:1008200010BD0000C8000020704772B600BFFEE790
:100830007047000038B5024600230020009000BF3A
:1008400092F82400012801D1022038BD012082F84D
:10085000240000BF4868072812D21068406B0C794A
:10086000641E04EB84051F24AC40A0430D796D1E6B
:1008700005EB85050C68AC4020431468606327E0F5
:1008800048680D2812D21068006B0C79E41F04EB45
:1008900084051F24AC40A0430D79ED1F05EB8505B1
:1008A0000C68AC4020431468206311E01068C06AF3
:1008B0000C790D3C04EB84051F24AC40A0430D795A
:1008C0000D3D05EB85050C68AC4020431468E062E3
:1008D00008680A2812D31068C0680C780A3C04EB38
:1008E00044050724AC40A0430D780A3D05EB4505BF
:1008F0008C68AC4020431468E0600FE01068006929
:100900000C7804EB44050724AC40A0430D7805EBBC
:1009100045058C68AC4020431468206108681028A5
:1009200002D00868112827D1174C1068A0421ED1A8
:100930001068806800F40000F0B91068806840F426
:1009400000001468A0600868102815D10F480068DE
:100950000F4CB0FBF4F000EB80004000009002E090
:100960000098401E009000980028F9D104E0906A99
:1009700040F020009062012300BF002082F8240094
:1009800000BF184661E70000002401400C00002071
:1009900040420F00704701460868C06C704770B550
:1009A0000446206805682068466806F02000202874
:1009B0002DD105F00200022829D1A06A00F0100014
:1009C00018B9A06A40F40070A0622068806800F442
:1009D0006020B0F5602F13D1207B88B92068406873
:1009E00020F0200021684860A06A20F48070A06296
:1009F000A06A00F4805018B9A06A40F00100A0621B
:100A00002046FFF7C7FF6FF012002168086006F06C
:100A10008000802839D105F00400042835D1A06A6F
:100A200000F0100018B9A06A40F40050A0622068DD
:100A3000806800F4E040B0F5E04F0DD020684068D9
:100A400000F48060D0B92068806800F46020B0F5C0
:100A5000602F13D1207B88B92068406820F0800087
:100A600021684860A06A20F48050A062A06A00F467
:100A7000807018B9A06A40F00100A0622046FFF71C
:100A8000D7FE6FF00C002168086006F04000402897
:100A90000DD105F0010050B1A06A40F48030A06291
:100AA000204600F0A7F86FF001002168086070BDD3
:100AB0002DE9F0410446002700250026A84614B978
:100AC0000120BDE8F081A06810B1207D00B100BF19
:100AD000A06A30B90020E06284F82400204600F0CB
:100AE0008BF82046FFF7D8FD0746A06A00F01000FB
:100AF000002873D1002F71D1A06A20F4885040F0F3
:100B00000200A062E16960680843217B40EA41007D
:100B10000643A068B0F5807F02D0A068012802D10A
:100B20004FF4807000E000200543207D012811D1A2
:100B3000207B38B9A069401E4FF4006141EA403083
:100B4000054307E0A06A40F02000A062E06A40F0A0
:100B50000100E0622068406820F469402843216871
:100B600048602068806821490840304321688860D7
:100B7000A068B0F5807F02D0A068012802D14FF4B0
:100B8000807000E00020B0F5807F03D1208A401EF5
:100B90004FEA00582068C06A20F4700040EA08005C
:100BA0002168C8622068806811490840B04208D1B5
:100BB0000020E062A06A20F0020040F00100A06284
:100BC00011E0A06A20F0020040F01000A062E06A8C
:100BD00040F00100E062012705E0FFE7A06A40F075
:100BE0001000A062012738466BE70000FDF7E1FF27
:100BF000FE0E1FFF7047000010B586B004460020AF
:100C0000029003900490059026492068884246D1BE
:100C100000BF2548806940F4007023498861084678
:100C2000806900F40070019000BF00BF00BF08465B
:100C3000806940F0080088610846806900F008007B
:100C4000019000BF00BF022002900320039002A980
:100C5000164800F0ABFA16481649086000204860B4
:100C60000021144881608021C160890001618900F0
:100C7000416120218161C901C16100F063FA08B1BD
:100C8000FFF7D3FD00BF0B482062446200BF002283
:100C90000221122000F0AEFC122000F09BFC06B0F6
:100CA00010BD00000024014000100240000C014073
:100CB00008000240C8000020F8B504460D46002692
:100CC00000200090002700F00FFC06462068806896
:100CD00000F4807050B1A06A40F02000A06200BF14
:100CE000002084F8240000BF0120F8BD206840687F
:100CF00000F4807020BB2068C06A00F47000F8B96E
:100D000017E0681CA8B125B100F0EEFB801BA842DB
:100D10000FD92068006800F0020050B9A06A40F0C6
:100D20000400A06200BF002084F8240000BF03205C
:100D3000DBE72068006800F002000028E1D053E003
:100D4000022000F0A9FC38490968B1FBF0F02168E5
:100D50000969364A114091B92168C9689211114058
:100D600069B921680969324A114031B92168C968F5
:100D70009211114009B9142117E0292115E02168C9
:100D800009692B4A114021B92168C96892111140A3
:100D900041B121680969274A114029B92168C96808
:100DA000114009B9542100E0FC2100FB01F718E0D3
:100DB000681C98B125B100F097FB801BA8420DD9A3
:100DC0000098B8420AD2A06A40F00400A06200BFB6
:100DD000002084F8240000BF032086E70098401C10
:100DE00000900098B842E3D36FF0120021680860C9
:100DF000A06A40F40070A0622068806800F460205F
:100E0000B0F5602F0DD1207B58B9A06A20F4807016
:100E1000A062A06A00F4805018B9A06A40F00100F6
:100E2000A062002061E700000C0000202449922409
:100E3000922449124992240070B50446002500BF4F
:100E400094F82400012801D1022070BD012084F80B
:100E5000240000BF2046FFF74DFC0546002D77D14A
:100E6000A06A40F20121884340F48070A0623C49AE
:100E70002068884208D13B48006800F4702008B917
:100E8000012002E0002000E0012078B1A06A20F4F7
:100E90008010A0622068406800F4806000B3A06AFF
:100EA00020F4005040F48050A06219E0A06A40F4A1
:100EB0008010A0622B49091F2068884203D028496E
:100EC0002068884204D12748006800F4806000E070
:100ED000002028B1A06A20F4005040F48050A062A5
:100EE000A06A00F4805020B1E06A20F00600E062C1
:100EF00001E00020E06200BF002084F8240000BF71
:100F0000C01E216808602068806800F46020B0F589
:100F1000602F16D112492068884208D11148006814
:100F200000F4702008B9012002E0002000E0012058
:100F300038B12068806840F4A000216888600CE027
:100F400006E02068806840F480102168886004E032
:100F500000BF002084F8240000BF284675E7000089
:100F6000002801400424014070B50446002500BF5C
:100F700094F82400012801D1022070BD012084F8DA
:100F8000240000BF2046FFF787FB05462DB9A06A65
:100F900020F4885040F00100A06200BF002084F8D7
:100FA000240000BF2846E8E770B50446E06B0568FA
:100FB0002068066894F840100420884028400028E3
:100FC00046D006F00400002842D02068006800F0F7
:100FD000200028B92068006820F00400216808601B
:100FE00057492068884201D1042027E05449143130
:100FF0002068884201D1402020E0514928312068F2
:10100000884201D1001519E04D493C3120688842E1
:1010100002D14FF4804011E04949503120688842A4
:1010200002D14FF4802009E04549643120688842AC
:1010300002D14FF4800001E04FF080604049083950
:101040004860E06A00287AD02046E16A884776E066
:1010500094F84010022088402840A0B306F0020017
:1010600088B32068006800F0200040B9206800685C
:1010700020F00A0021680860012084F8210030492E
:101080002068884201D1022028E02D4914312068CF
:10109000884201D1202021E0294928312068884256
:1010A00001D140151AE026493C312068884202D11E
:1010B0004FF4005012E0224950312068884203D199
:1010C0004FF400300AE017E01D496431206888427F
:1010D00002D14FF4001001E04FF0007018490839B8
:1010E000486000BF002084F8200000BFA06A30B331
:1010F0002046A16A884722E094F8401008208840E2
:101100002840E0B106F00800C8B12068006820F06F
:101110000E002168086094F8401001208840E16BBF
:1011200048600120A06384F8210000BF002084F8FB
:10113000200000BF206B10B12046216B884770BD96
:10114000080002400146002209B901207047164BF1
:101150000868C01A1423B0FBF3F08000086412483A
:101160000838C863022081F821000868026843F645
:10117000F0708243D1E901031843CB6818430B692F
:1011800018434B6918438B691843CB6918430243D2
:101190000868026000208863012081F82100002097
:1011A00081F8200000BFD1E7080002402DE9F84790
:1011B0000346002294466EE14FF0010808FA02F45B
:1011C000D1F8008008EA0400A0427DD1DFF8DCA25B
:1011D000D1F80480A8EB0A09D0453AD014DCB8F164
:1011E000030F50D009DCB8F1000F31D0B8F1010F76
:1011F0001CD0B8F1020F49D120E0B8F1110F18D07E
:10120000B8F1120F42D11EE0B9F5881F25D006DCD7
:10121000B9F5803F20D0B9F5801F37D11AE0B9F574
:10122000001F18D0B9F5041F30D117E0D1F80CC059
:101230002DE0D1F80C8008F1040C28E0D1F80C80E6
:1012400008F1080C23E0D1F80C8008F10C0C1EE02A
:1012500000BF00BF00BF00BF00BF00BFD1F80880C3
:10126000B8F1000F02D14FF0040C0BE0D1F8088068
:10127000B8F1010F03D14FF0080C1C6102E04FF0F0
:10128000080C5C6103E04FF0000C00E000BF00BF01
:10129000FF2801D8984601E003F104084646FF28DC
:1012A00002D84FEA820803E0A2F108084FEA880852
:1012B0004746D6F800804FF00F0909FA07F928EAE7
:1012C00009080CFA07F900E088E048EA0908C6F8BE
:1012D0000080D1F8048008F08058B8F1805F7DD19B
:1012E00000BFDFF8CC81D8F8188048F00108DFF89B
:1012F000C091C9F81880C846D8F8188008F00108CD
:10130000CDF8008000BF00BF4FEAB9384FEA92091C
:1013100058F829504FEA82784FEA18794FF00F08B1
:1013200008FA09F825EA0805DFF88881434502D163
:101330004FF0000816E0DFF88081434502D14FF0FE
:1013400001080FE0DFF87481434502D14FF0020835
:1013500008E0DFF86C81434502D14FF0030801E05B
:101360004FF004084FEA82794FEA197908FA09F830
:1013700048EA0505DFF84C814FEA920948F8295000
:10138000D1F8048008F48018B8F5801F0AD1DFF87E
:101390003881D8F8008048EA0008DFF82C91C9F8B5
:1013A000008009E0DFF82081D8F8008028EA0008F2
:1013B000DFF81491C9F80080D1F8048008F400180F
:1013C000B8F5001F10D1DFF8008108F10408D8F843
:1013D000008048EA0008DFF8F09000E05AE009F1E8
:1013E0000409C9F800800DE0DFF8DC8008F104088A
:1013F000D8F8008028EA0008DFF8CC9009F1040949
:10140000C9F80080D1F8048008F40038B8F5003F2E
:101410000ED1DFF8B480A8F10408D8F8008048EABB
:101420000008DFF8A490A9F10409C9F800800DE0D4
:10143000DFF89480A8F10408D8F8008028EA0008B2
:10144000DFF88490A9F10409C9F80080D1F804807C
:1014500008F48038B8F5803F0ED1DFF86C80A8F131
:101460000808D8F8008048EA0008DFF85C90A9F185
:101470000809C9F800800DE0DFF84C80A8F10808E1
:10148000D8F8008028EA0008DFF83C90A9F10809A4
:10149000C9F80080521CD1F8008028FA02F8B8F18F
:1014A000000F7FF489AEBDE8F8870000000011103E
:1014B0000010024000080140000C014000100140F3
:1014C00000140140080001400804014002469368EE
:1014D0000B400BB1012000E0002070470AB1016110
:1014E00001E00B0403617047014800687047000089
:1014F00000000020034800680349097808440149B6
:1015000008607047000000200800002010B508485F
:10151000006840F0100006490860032000F0A8F8B9
:10152000002000F007F800F02BF8002010BD0000AC
:101530000020024070B504460E4800784FF47A71DE
:10154000B1FBF0F00C490968B1FBF0F5284600F05A
:10155000FFFC08B1012070BD102C07D200222146EB
:10156000501E00F047F80548046001E00120F2E752
:101570000020F0E7080000200C00002004000020FC
:1015800008B500BF1148806940F001000F4988612B
:101590000846806900F00100009000BF00BF00BF56
:1015A0000846C06940F08050C8610846C06900F034
:1015B0008050009000BF00BF00BF0549486820F080
:1015C000E06040F00070486000BF08BD00100240BD
:1015D0000000014001460846002809DB00F01F0317
:1015E00001229A4043099B0003F1E023C3F8002144
:1015F00000BF70472DE9F05F80460D461646002774
:1016000001F0D0FB074639462A46334601F0070071
:10161000C0F1070ABAF1040F02D94FF0040A01E041
:10162000C0F1070AD14600F1040ABAF1070F02D24D
:101630004FF0000A01E0A0F1030AD4464FF0010A7E
:101640000AFA09FAAAF1010A0AEA020A0AFA0CFAE3
:101650004FF0010B0BFA0CFBABF1010B0BEA030B88
:101660004AEA0B042146404601F0A4FBBDE8F09F86
:1016700000BF00F00702064B19684FF6FF03194040
:10168000044B0B4343EA0221014B196000BF704732
:101690000CED00E00000FA052DE9F04706464FF09A
:1016A0000008002500270024A146012E31D0022E7B
:1016B00056D0102E5FD132484468006800F0807028
:1016C00008B33048C4F38341475C04F4803078B1F8
:1016D0002B484068C0F340402B4911F8008004F4C7
:1016E000803040B12948B0FBF8F000FB07F502E07C
:1016F000274807FB00F52248406800F48000B0F559
:10170000800F01D1A94603E068000321B0FBF1F985
:1017100032E01B48046A04F44070B0F5807F05D1C4
:1017200004F0020010B14FF4004918E004F44070D6
:10173000B0F5007F07D11248406A00F0020010B1F6
:1017400049F640490BE004F44070B0F5407F06D103
:101750000B48006800F4003008B14FF224490BE058
:1017600000F07CF906494968C1F38131491C490000
:10177000B0FBF1F900E000BF00BF4846BDE8F087CC
:1017800000100240E23F0008F23F000800127A0019
:1017900000093D00F8B5044600260025207800F039
:1017A000010000286BD000274348C06900F080503A
:1017B00070B900BF4048C06940F080503E49C861E0
:1017C0000846C06900F08050009000BF00BF0127AC
:1017D0003A48006800F48070B0B93848006840F4B6
:1017E000807036490860FFF77FFE064606E0FFF787
:1017F0007BFE801B642801D90320F8BD2F480068B8
:1018000000F480700028F2D02B48006A00F4407584
:101810002DB3A08800F44070A84220D02648006A6A
:1018200020F4407501202649086000200860224805
:10183000056205F0010090B1FFF756FE064608E08C
:10184000FFF752FE801B41F28831884201D9032004
:10185000D3E71948006A00F002000028F0D01648CB
:10186000006A20F440706168084313490862012F40
:1018700004D10846C06920F08050C86100BF2078BC
:1018800000F00200022807D10B48406820F44040D5
:10189000A168084308494860207800F0100010282B
:1018A00007D10548406820F48000E16808430249F8
:1018B00048600020A1E700000010024000700040D6
:1018C0004004424270B504460D460CB9012070BD7B
:1018D0005A48006800F00700A8420ED25748006836
:1018E00020F007002843554908600846006800F0CA
:1018F0000700A84201D00120E9E7207800F00200AB
:1019000002281DD1207800F00400042805D14C489D
:10191000406840F4E0604A494860207800F00800E0
:10192000082805D14648406840F460504449486062
:101930004348406820F0F000A168084340494860EF
:10194000207800F0010078B36068012806D13C4897
:10195000006800F4003090B90120B8E76068022800
:1019600006D13748006800F0007040B90120AEE7AA
:101970003348006800F0020008B90120A7E73048AA
:10198000406820F00300616808432D494860FFF774
:10199000ABFD064609E0FFF7A7FD801B41F2883149
:1019A000884202D9032092E707E02548406800F00A
:1019B0000C006168B0EB810FEDD12048006800F0A9
:1019C0000700A8420ED91D48006820F007002843F0
:1019D0001A4908600846006800F00700A84201D0D4
:1019E000012074E7207800F00400042807D114488F
:1019F000406820F4E060E1680843114948602078BD
:101A000000F00800082808D10D48406820F4605014
:101A1000216940EAC1000A49486000F02FF80849EE
:101A20004968C1F30311074A515CC8400649086080
:101A300006480068FFF77EFD002048E700200240CE
:101A400000100240F43F00080C00002004000020B9
:101A500001480068704700000C00002000B5FFF747
:101A6000F7FF04494968C1F3C221034A515CC840E9
:101A700000BD0000001002400440000870B50021C5
:101A80000022002400230020134D696801F00C059A
:101A9000F5B1042D02D0082D19D101E00F4819E04D
:101AA0000F4DC1F38346AB5D01F4803555B10A4D4E
:101AB0006D68C5F340450B4E725D084D5D43B5FB47
:101AC000F2F402E0084D03FB05F4204602E000BFFB
:101AD000024800BF00BF70BD0010024000127A0033
:101AE000D03F0008E03F000800093D00F8B504467B
:101AF0000CB90120F8BD207800F00100002878D052
:101B0000F848406800F00C0004280CD0F548406804
:101B100000F00C00082811D1F248406800F4803031
:101B2000B0F5803F0AD1EF48006800F4003000288B
:101B30005FD0606800285CD10120DBE700BF6068EF
:101B4000B0F5803F06D1E748006840F48030E549B1
:101B5000086028E0606858B9E248006820F48030E6
:101B6000E04908600846006820F4802008601AE018
:101B70006068B0F5A02F0BD1DA48006840F48020EF
:101B8000D84908600846006840F4803008600AE0E0
:101B9000D448006820F48030D249086008460068C4
:101BA00020F48020086000BF606888B1FFF79CFCCB
:101BB000054606E0FFF798FC401B642801D9032086
:101BC00098E7C848006800F400300028F2D010E020
:101BD000FFF78AFC054606E0FFF786FC401B6428F9
:101BE00001D9032086E7BF48006800F400300028D0
:101BF000F2D1207800F00200022857D1B94840689D
:101C000000F00C0050B1B748406800F00C00082804
:101C100018D1B448406800F4803098B9B1480068E1
:101C200000F0020020B12069012801D0012061E705
:101C3000AC48006820F0F800616940EAC100A94999
:101C4000086033E02069E8B10120A7490860FFF788
:101C50004BFC054606E0FFF747FC401B022801D974
:101C6000032047E79F48006800F002000028F2D0F8
:101C70009C48006820F0F800616940EAC100994979
:101C8000086013E0002098490860FFF72DFC054626
:101C900006E0FFF729FC401B022801D9032029E7B1
:101CA0009048006800F002000028F2D1207800F08F
:101CB000080008282DD1A069B8B101208B4908601F
:101CC000FFF712FC054606E0FFF70EFC401B02285A
:101CD00001D903200EE78348406A00F00200002883
:101CE000F2D0012000F09EFE13E000207F49086042
:101CF000FFF7FAFB054606E0FFF7F6FB401B02285C
:101D000001D90320F6E67748406A00F00200002877
:101D1000F2D1207800F00400042873D10027714824
:101D2000C06900F0805070B900BF6E48C06940F0D3
:101D300080506C49C8610846C06900F0805000902E
:101D400000BF00BF01276A48006800F48070B0B986
:101D50006748006840F4807065490860FFF7C4FB7D
:101D6000054606E0FFF7C0FB401B642801D90320AD
:101D7000C0E65F48006800F480700028F2D000BF21
:101D8000E068012806D15748006A40F00100554933
:101D9000086227E0E06858B95248006A20F0010064
:101DA000504908620846006A20F00400086219E001
:101DB000E06805280BD14B48006A40F0040049490F
:101DC00008620846006A40F0010008620AE04548DF
:101DD000006A20F00100434908620846006A20F0CA
:101DE0000400086200BFE068A0B1FFF77DFB054674
:101DF00009E0FFF779FB401B41F28831884202D9A4
:101E0000032077E622E03748006A00F0020000284D
:101E1000EFD012E0FFF768FB054608E0FFF764FB30
:101E2000401B41F28831884201D9032062E62D48E7
:101E3000006A00F002000028F0D1012F05D12948E6
:101E4000C06920F080502749C86100BFE069C8B36D
:101E50002448406800F00C00082860D0E06902289F
:101E600048D1002020490866FFF73EFB054606E002
:101E7000FFF73AFB401B022801D903203AE6194834
:101E8000006800F000700028F2D1206AB0F5803FB1
:101E900007D11448406820F40030A1680843114974
:101EA0004860D4E9080108430E49496821F47411D7
:101EB00008430C49486001200B490866FFF714FBF2
:101EC000054607E03DE0FFF70FFB401B022801D964
:101ED00003200FE60348006800F000700028F2D0ED
:101EE0002FE0000000100240000042428004424205
:101EF00000700040002014490866FFF7F5FA054617
:101F000006E0FFF7F1FA401B022801D90320F1E5B2
:101F10000E48006800F000700028F2D111E0E0697E
:101F2000012800D1E6E50948466806F48031206AB8
:101F3000814204D106F47011606A814201D001200F
:101F4000D8E50020D6E50000000042420010024023
:101F500070B504462546681EB0F1807F01D301208C
:101F60000FE0681E4FF0E02148610F214FF0FF3075
:101F700000F020FF00204FF0E02188610720086179
:101F8000002070BD30B502460B4600BF92F83C0001
:101F9000012801D1022030BD012082F83C0000BFA1
:101FA000022082F83D00106844681068816824F0BF
:101FB00070041868044310684460104D1068A8420B
:101FC0000BD01068B0F1804F07D00D4D1068A842BB
:101FD00003D00C4D1068A84205D121F0800158684B
:101FE000014310688160012082F83D0000BF00209D
:101FF00082F83C0000BF00BFCDE70000002C01408C
:10200000000400400008004010B504460CB901204F
:1020100010BD94F83D0028B9002084F83C0020460B
:1020200000F026F8022084F83D00211D206800F011
:1020300055FD012084F8460000BF84F83E000121D0
:102040003F200155402001554120015500BF00BFF0
:10205000012084F8420043200155442001554520C9
:10206000015500BF012084F83D000020D0E70000AA
:1020700008B50168B1F1804F0DD100BF0649C969AB
:1020800041F00101044AD1611146C96901F0010121
:10209000009100BF00BF08BD001002402DE9F041D3
:1020A00004460D46002700BF94F83C00012802D1E9
:1020B0000220BDE8F081012084F83C0000BF02202E
:1020C00084F83D002068866826F0770626F47F466F
:1020D000206886602868502833D00CDC202850D037
:1020E00004DC00284BD0102851D149E0302849D0D9
:1020F00040284CD139E060282DD0702807D0B0F5A9
:10210000805F03D0B0F5005F41D10DE041E0D5E93B
:1021100002136A68206800F034FD2068866846F083
:1021200077062068866034E0D5E902136A68206883
:1021300000F027FD2068806840F4804021688860B6
:1021400027E0EA686968206800F0ECFD502120680B
:1021500000F022FD1DE0EA686968206800F0F5FDE6
:102160006021206800F018FD13E0EA6869682068C3
:1021700000F0D8FD4021206800F00EFD09E000BF0E
:1021800000BF00BF2968206800F006FD01E00127BC
:1021900000BF00BF012084F83D0000BF002084F88C
:1021A0003C0000BF384684E710B586B004460020E6
:1021B00002900390049005902068B0F1804F15D1F3
:1021C00000BF0B48806940F0040009498861084657
:1021D000806900F00400019000BF00BF022002905F
:1021E0000390059002A90348FEF7E0FF06B010BD7A
:1021F00000100240000801402DE9F04104460D4660
:102200001646002700BF94F83C00012802D10220A6
:10221000BDE8F081012084F83C0000BF36B1042EF7
:102220001BD0082E31D00C2E5ED145E02946206807
:1022300000F0BCFC2068806940F0080021688861DB
:102240002068806920F00400216888612068806926
:10225000296908432168886148E02946206800F020
:10226000D5FC2068806940F400602168886120689E
:10227000806920F48060216888612068806929690C
:1022800040EA01202168886130E02946206800F09A
:10229000F1FC2068C06940F008002168C86120682E
:1022A000C06920F004002168C8612068C0692969FC
:1022B00008432168C86119E02946206800F00EFD36
:1022C0002068C06940F400602168C8612068C06966
:1022D00020F480602168C8612068C069296940EAEB
:1022E00001202168C86101E0012700BF00BF00BFD5
:1022F000002084F83C0000BF384689E710B504464A
:102300000CB9012010BD94F83D0028B9002084F8D4
:102310003C00204600F025F8022084F83D00211DF5
:10232000206800F0DBFB012084F8460000BF84F841
:102330003E0001213F20015540200155412001551B
:1023400000BF00BF012084F8420043200155442013
:1023500001554520015500BF012084F83D000020B3
:10236000D0E7704770B504460D4615B994F83E00A5
:102370000BE0042D02D13F20005D06E0082D02D1C4
:102380004020005D01E04120005D012801D00120D6
:1023900070BD1DB9022084F83E000EE0042D03D16B
:1023A00002213F20015508E0082D03D102214020E1
:1023B000015502E0022141200155012229462068F1
:1023C00000F0CEFB19492068884201D1012000E0CD
:1023D000002028B12068406C40F400402168486427
:1023E0001249206888420BD02068B0F1804F07D096
:1023F0000F492068884203D00E49206888420CD1DA
:102400002068806800F00706062E0CD0206800685F
:1024100040F001002168086005E02068006840F095
:102420000100216808600020B2E70000002C014094
:10243000000400400008004010B50A4800780A2156
:1024400090FBF1F201FB120018B9FEF79BF9064967
:1024500008800A2001F068F902480078401C014910
:10246000087010BD960000209400002000BFFEE719
:102470000EB50020009001900290134813490860A7
:1024800000211248816001210173002101754FF480
:102490006021C16100200D49486001210B480161A4
:1024A000FEF706FB08B1FEF7C0F9092000900120F5
:1024B00001900020029069460448FEF7BBF908B17C
:1024C000FEF7B3F90EBD0000002401409800002083
:1024D00008B500BF0A48406940F00100084948615A
:1024E0000846406900F00100009000BF00BF0022D4
:1024F00011460B20FFF77EF80B20FFF76BF808BDA5
:102500000010024000B585B00020019002900390B9
:10251000049000BF4E48806940F010004C4988612B
:102520000846806900F01000009000BF00BF00BFA7
:102530000846806940F0200088610846806900F004
:102540002000009000BF00BF00BF0846806940F037
:10255000040088610846806900F00400009000BF14
:1025600000BF00BF0846806940F008008861084647
:10257000806900F00800009000BF00BF00224FF407
:1025800000513448FEF7AAFF01224EF210013248F2
:10259000FEF7A4FF00224FF480713048FEF79EFF43
:1025A00001224FF4F0512D48FEF798FF4FF40050F0
:1025B00001900120029003900220049001A9254877
:1025C000FEF7F4FDF020019000200290012003901E
:1025D00001A92248FEF7EAFD4FF480500190002047
:1025E00002900220039001A91B48FEF7DFFD4EF286
:1025F000100001900120029000200390022004901E
:1026000001A91548FEF7D2FD4FF4F85001900120C2
:102610000290002003900220049001A90F48FEF7C9
:10262000C5FD4FF4807001900020029001200390BE
:1026300001A90948FEF7BAFD4FF40070019000208F
:102640000290039001A90448FEF7B0FD05B000BD5B
:102650000010024000100140000C01400008014041
:1026600000B58DB0002009900A900B900C90079057
:1026700008901C216846FDF76CFD4FF08040214911
:10268000086040F2CF20486000211E4881604FF46E
:10269000FA61C1600021016180218161FFF7B4FC12
:1026A00008B1FEF7C2F84FF48050099009A9154807
:1026B000FFF7F4FC08B1FEF7B8F81248FFF71EFE6A
:1026C00008B1FEF7B2F800200790089007A90D485E
:1026D000FFF758FC08B1FEF7A8F86020009040F220
:1026E000E7300190002002900490042269460548DA
:1026F000FFF782FD08B1FEF798F80248FFF754FD96
:102700000DB000BD0C01002000BFFEE700BFFEE7DA
:102710000FB430B587B004460D460DA801901121C5
:1027200002A8019B0C9A00F027FB0020019002AA4E
:102730002946204600F040F907B030BC5DF814FB94
:1027400070B500240EE00021204600F0EAF80025D4
:1027500004E0002000F054F9681CC5B2802DF8DBBD
:10276000601CC4B2082CEEDB70BD000000B585B063
:1027700000BF1248806940F008001049886108468F
:10278000806900F00800009000BF00BF1120029097
:102790004FF4406001900320049001A90848FEF71F
:1027A00005FD012291020648FEF798FE0122D102A2
:1027B0000348FEF793FE05B000BD00000010024084
:1027C000000C014070B50546002415E08020204132
:1027D00000EA05024FF400610E48FEF77FFE012279
:1027E00091020C48FEF77AFE00224FF480610948FE
:1027F000FEF774FE601CC4B2082CE7DB01229102D4
:102800000448FEF76BFE00224FF480610148FEF79A
:1028100065FE70BD000C014010B50122D1020A48CE
:10282000FEF75CFE012291020748FEF757FE0022E8
:102830004FF400610448FEF751FE00224FF480611E
:102840000148FEF74BFE10BD000C014010B5002200
:102850004FF400610648FEF741FE01229102044850
:10286000FEF73CFE0122D1020148FEF737FE10BD03
:10287000000C014070B5002406E0002500E06D1C4E
:10288000B5F57A7FFBD3641CB4F57A7FF5D3FFF7F7
:102890006DFFAE2000F0A4F8D52000F0A1F8802054
:1028A00000F09EF8A82000F09BF83F2000F098F878
:1028B000D32000F095F8002000F092F8402000F0BE
:1028C0008FF8A12000F08CF8C82000F089F8DA20F9
:1028D00000F086F8122000F083F8812000F080F8E4
:1028E000CF2000F07DF8D92000F07AF8F12000F038
:1028F00077F8DB2000F074F8302000F071F8A420A5
:1029000000F06EF8A62000F06BF88D2000F068F85B
:10291000142000F065F8AF2000F062F8FFF710FF18
:1029200070BD70B505460C4645F0B00000F058F893
:10293000102141EA141000F053F804F00F0000F0E9
:102940004FF870BD2DE9F04105460E461746721E40
:10295000D206110E6A1E5206100EFFF7E2FF002487
:1029600009E0A7F12001134A02EB0111085D00F014
:1029700047F8601CC4B2082CF3DB721ED206110E9D
:102980006A1E012303EB4202D0B2FFF7CAFF002404
:102990000BE0A7F12001074A02EB011204F1080144
:1029A000505C00F02DF8601CC4B2082CF1DBBDE8CF
:1029B000F08100000C4000082DE9F04107460E466A
:1029C0001546002407E02A5D3019C1B23846FFF7EA
:1029D000B9FF601CC4B2285D0028F4D1BDE8F081C5
:1029E00010B50446FFF718FF7820FFF7EBFE002034
:1029F000FFF7E8FE2046FFF7E5FEFFF727FF10BDD3
:102A000010B50446FFF708FF7820FFF7DBFE4020F3
:102A1000FFF7D8FE2046FFF7D5FEFFF717FF10BDE2
:102A20007047000008B508490968C9084FF47A7270
:102A3000B1FBF2F14143009100BF00BF00994A1E73
:102A400000920029F9D108BD0C000020704710B594
:102A5000FEF750FD10BD00B593B0282109A8FDF781
:102A600078FB142104A8FDF774FB0020009001906E
:102A7000029003900120099000040A9000200B901E
:102A800001200D9002201090C10311914FF4E0112C
:102A9000129109A8FFF72AF808B1FDF7C6FE0F202A
:102AA000049002200590002006904FF4806007906B
:102AB00000200890022104A8FEF704FF08B1FDF7EA
:102AC000B4FE02200090800302906846FEF762FE8A
:102AD00008B1FDF7AAFE13B000BD704710B502683B
:102AE0001C4B984208D0B0F1804F05D01A4B984249
:102AF00002D01A4B984203D122F070024B681A435D
:102B0000144B984208D0B0F1804F05D0124B984238
:102B100002D0124B984203D122F44072CB681A4380
:102B200022F080034C6943EA040202608B68C362AE
:102B30000B688362074B984201D10B690363012341
:102B40004361036903F001031BB1036923F001032F
:102B5000036110BD002C014000040040000800404B
:102B600030B501F01F05012404FA05F3046A9C4303
:102B70000462046A01F01F0502FA05F52C430462A1
:102B800030BD30B50C46816821F47F4142EA03250F
:102B900025432943816030BD0A46816821F07001D8
:102BA00042F00703194381607047000030B5026AA4
:102BB000056A25F0010505624368846924F0700404
:102BC00024F003040D682C4322F002028D682A438E
:102BD0000D4DA84206D100BF22F00802CD682A435D
:102BE00022F00402084DA84207D123F4807323F495
:102BF00000734D692B438D692B43436084614D689D
:102C00004563026230BD0000002C014030B5026A0D
:102C1000056A25F0100505624368846924F4E044E0
:102C200024F440740D6844EA052422F020028D68E3
:102C300042EA05120E4DA84207D100BF22F08002E1
:102C4000CD6842EA051222F04002094DA84209D19E
:102C500023F4806323F400634D6943EA85038D699F
:102C600043EA8503436084614D688563026230BD39
:102C7000002C014030B5026A056A25F480750562B2
:102C80004368C46924F0700424F003040D682C43E5
:102C900022F400728D6842EA05220F4DA84207D146
:102CA00000BF22F40062CD6842EA052222F480626D
:102CB000094DA84209D123F4805323F400534D69F0
:102CC00043EA05138D6943EA05134360C4614D6807
:102CD000C563026230BD0000002C014030B5036ABC
:102CE000056A25F4805505624468C26922F4E04211
:102CF00022F440720D6842EA052223F400538D68E5
:102D000043EA0533064DA84204D124F480444D69BA
:102D100044EA85144460C2614D680564036230BDB5
:102D2000002C014030B50B461446026A056A25F0B6
:102D300001050562816921F0F00141EA041122F0E8
:102D40000A021A438161026230BD30B50B46144657
:102D5000026A056A25F010050562816921F4704157
:102D600041EA043122F0A00242EA031281610262C8
:102D700030BD00BFFEE700007CB5044600201D46C4
:102D8000164600290BD0491ECDE90041044B6A4686
:102D90002946304600F0F4F8009A002111707CBDFD
:102DA000AF36000802480068C0F3022070470000F8
:102DB0000CED00E010B5002804DB0A07130E054AED
:102DC000135406E00A07140E034A00F00F031B1FFA
:102DD000D45410BD00E400E018ED00E002E008C8A3
:102DE000121F08C1002AFAD170477047002001E085
:102DF00001C1121F002AFBD1704700002DE9FF5FBF
:102E000082B00021DDE90430020DDDF840B003435B
:102E100018D044F61050A2F2FF3242431514119814
:102E200001281FD0A5EB0B00401C5FEA000A4FF001
:102E300000064E4FDFF83891B046504615D5CAF11E
:102E4000000413E0119801244AA3012801D16FEA7C
:102E50000B010298119AC0E90031C0E9024206B0A4
:102E6000BDE8F09FCBF10000DFE704460021404AB7
:102E7000491842EB0450CDE9001012E0E00707D0FA
:102E800032463B4640464946FDF75CFA8046894655
:102E900032463B4610461946FDF754FA06460F46A1
:102EA0006410002CEAD1DDE90401DDE90023BAF168
:102EB000000F06DAFDF746FA42464B46FDF742FAA6
:102EC00005E0FDF7B1FA42464B46FDF7ADFA044680
:102ED0000E460022284BFDF72FFB03D84FF0FF30A2
:102EE000014607E00022254B20463146FDF783F9D5
:102EF000FDF709FB102409E0002C0ADB0A2200235D
:102F0000FDF748F9039B30321A55641E50EA01025E
:102F1000F2D1641C039AC4F111031444119A012ADA
:102F200003D0012208430DD10AE0084304D0002059
:102F30004FF0110B119072E7A3EB0B056D1E0DE026
:102F40005B4504DD4FF0000205F1010504E003DA02
:102F50004FF00002A5F10105002AECD0029811996A
:102F6000C0E90231C0E9004579E7000000001440E3
:102F70000000F03F300000000000F0430000E03FA0
:102F80002DE9FF4F95B09B468946064600250FE286
:102F9000252877D100242746F84A0121059400E02E
:102FA000044316F8013F203B01FA03F01042F7D129
:102FB00030782A2811D06FF02F033078A0F130023A
:102FC000092A16D8059A44F0020402EB820203EBA8
:102FD00042021044761C0590EFE759F8042B059245
:102FE000002A03DA504244F40054059044F00204ED
:102FF000761C30782E2816D116F8010F44F0040400
:103000002A280DD06FF02F023078A0F13003092B61
:1030100009D807EB870302EB4303C718761CF3E7D5
:1030200059F8047B761C30786C280FD006DC4C28CD
:1030300017D068280DD06A2814D104E0742810D065
:103040007A280FD10DE044F400140AE044F480140F
:1030500001E044F440147278824202D104F58014F5
:10306000761C761C307866280BD013DC582877D075
:1030700009DC002875D04528F6D04628F4D047282A
:103080001AD19DE118E0632835D0642879D06528ED
:1030900012D195E1702873D008DC6728F1D0692837
:1030A0006FD06E280DD06F2806D1B5E073282CD0D4
:1030B000752875D0782874D05A46179990476D1C9A
:1030C00075E1C4F30250022809D003280DD0D9F8C5
:1030D000001004280DD00D6009F1040967E1D9F84A
:1030E0000010EA17C1E90052F6E7D9F800100D8088
:1030F000F2E70D70F0E719F8041B8DF800100020BE
:103100008DF80100EA46012003E059F804AB4FF0C6
:10311000FF3061074FF0000102D40DE008F101011A
:103120008846B9420FDA8045F8DB1AF80810002902
:10313000F4D108E008F1010188468142FADB1AF86F
:1031400008100029F6D105985B46A0EB0807214638
:103150003846179A00F094FA284400EB080507E077
:103160004DE029E10DE01AF8010B5A4617999047F6
:10317000B8F10108F7D25B4621463846179A13E1A9
:1031800042E00A220092C4F302524FF0000A022ADF
:1031900008D059F804CB032A4FEAEC710AD00DE0AD
:1031A00029E02AE009F1070121F00702F2E802C153
:1031B000914609E00FFA8CFC4FEAEC71042A03D126
:1031C0004FFA8CFC4FEAEC71002907DA0A4600211D
:1031D000DCF1000C61EB02012D2202E0220504D596
:1031E0002B228DF80420012203E0E20701D02022E7
:1031F000F7E7904659E00A2102E010220DE0102185
:103200004FF0000A00910BE010224FF0000A44F04A
:1032100004040827009203E008224FF0000A0092FD
:10322000C4F30252022A05D059F804CB0021032A24
:1032300008D009E009F1070121F00702F2E802C114
:10324000914605E01FFA8CFC042A01D10CF0FF0C1A
:103250004FF00008220728D5702806D0009B83F085
:10326000100353EA0A0305D00EE040228DF8042033
:10327000012208E05CEA010206D030228DF8042029
:103280008DF8050002229046009B83F0080353EA64
:103290000A030AD15CEA010201D1620705D5302296
:1032A0008DF804204FF001087F1E582804D034A068
:1032B00003900EA802900DE036A0F9E75346604651
:1032C000009AFCF767FF84460398825C0298401ED0
:1032D000029002705CEA0100F0D1029806A9081A77
:1032E00000F1200A600702D524F4803400E00127B1
:1032F000574502DDA7EB0A0000E0002000EB0A01C1
:10330000009005984144401A0590E00306D45B46BE
:103310002146179A059800F0B3F90544002706E006
:1033200001A85A46C05D179990476D1C7F1C474500
:10333000F6DBE0030CD55B462146179A059800F0B2
:103340009FF9054404E030205A46179990476D1CB8
:103350000099481E00900029F5DC08E002980299C7
:103360005A460078491C0291179990476D1CBAF192
:103370000001AAF1010AF1DC65E100000928010061
:1033800030313233343536373839616263646566DB
:10339000000000003031323334353637383941429D
:1033A000434445460000000000F058F90544761CEF
:1033B000307800287FF4ECAD19B02846BDE8F08FD6
:1033C000620700D4062709F1070222F0070CFCE887
:1033D0000223E14603F000485FEA080C02D00FF236
:1033E000702C0DE05FEA045C02D50FF2682C07E058
:1033F0005FEAC47C02D00FF2602C01E0AFF2700CE7
:103400004FF0FF3823F00043CDF850C065280CD0B2
:1034100006DC452809D046281DD047283DD13DE08F
:10342000662818D067287ED138E00021112F01DBF3
:10343000112000E0781CCDE9000106A90EA8FFF7D5
:10344000DDFCDDE90F010E9A03910021009207F1E6
:10345000010A04914DE04FF000400097CDE90110C2
:1034600006A90EA8FFF7CAFCDDE90F0203920E9B26
:1034700011990022DDF80CA00093049211B9791C77
:1034800000EB010AB7EB0A0004D4C0F1FF3007F1EA
:10349000010A0490AAEB0700019044E0012F00DA32
:1034A00001270021112F01DD112000E03846CDE970
:1034B000000106A90EA8FFF7A1FCDDE90F010E9A95
:1034C0000391002104910092BA4621070CD403997C
:1034D000514500DA8A46BAF1010F05DD009AAAF1DA
:1034E0000101515C302908D0B84202DA10F1040F12
:1034F00006DA0121CDE9011015E0AAF10101E9E7A1
:10350000002805DC049901440491AAEB000102E0C3
:10351000411C514500DD8A460499401A401C019027
:103520004FF000400290200704D40198504501DB81
:10353000CDF8048000208DF84F0002980DF14F0760
:10354000B0F1004F25D02B200E9002984FF00208CA
:1035500000280CDA404202902D200E9007E00A214C
:103560000298FCF701FE3031029007F8011DB8F116
:103570000001A8F10108F2DC02980028EFD1791EC1
:103580000E980870307800F0200040F0450007F8F1
:10359000020D12A8C01B00F107081498007800B1B2
:1035A000012000EB0A01019801EBE071059841440C
:1035B000401A401E0590E00306D45B462146179A48
:1035C000059800F05DF805441498007818B15A4643
:1035D000179990476D1CE00324D55B462146179A46
:1035E000059800F04DF805441CE00498002807DB1E
:1035F000DDE90301884203DD0098405C179901E092
:10360000179930205A469047049805F10105401C4F
:1036100004900198401E019004D12E205A4617991B
:1036200090476D1CBAF10001AAF1010ADDDC05E04A
:1036300017F8010B5A46179990476D1CB8F1000115
:10364000A8F10108F4DC5B462146179A0598ABE621
:103650002D0000002B000000200000002DE9F041AB
:10366000044600251E461746880404D405E0394662
:103670002020B0476D1C641EF9D52846BDE8F081B6
:103680002DE9F041044600251E469046C80301D5A9
:10369000302700E02027880404D505E0414638465D
:1036A000B0476D1C641EF9D52846BDE8F0814A6814
:1036B000002A06D00A68531C0B6010704868401E30
:1036C0004860704710B50948FDF7B6FB4FF0FF3171
:1036D0000648FDF7F1FA20B90448FDF75CF9044902
:1036E00008800248FDF740FC10BD00009800002053
:1036F0008600002010B50748008828B90122102153
:103700000548FDF7EBFE04E0002210210248FDF71A
:10371000E5FE10BD88000020000C01400149086052
:10372000704700008C00002010B504464FF47A71F9
:1037300004FB01F000F002F810BD000070B5034674
:1037400000224FF0E02675690D4E366803FB06F443
:103750004FF0E026B16910E04FF0E026B0698842F2
:103760000BD0884202D20E1A324402E02E1A0E44C6
:1037700032440146A24200D300E0EDE700BF70BD35
:103780008C00002070B50024002504E0601CC4B249
:103790000120FFF7D3FF4FF480710F48FDF796FE2D
:1037A00008B1642CF2DB642C01DB012511E000245C
:1037B00004E0601CC4B20120FFF7C0FF4FF4807129
:1037C0000548FDF783FE08B9642CF2DB642C00DBAE
:1037D0000125284670BD00000008014000B585B0F5
:1037E00000BF00BF0F48806940F004000D498861A8
:1037F0000846806900F00400009000BF00BF00BFD1
:10380000881501901120029001200390032004905C
:1038100001A90548FDF7CAFC00F072F8FFF7B2FFF6
:1038200005B000BD001002400008014010B50024A2
:1038300004E0601CC4B20120FFF780FF4FF48071E8
:103840001048FDF743FE08B1642CF2DB002404E0CD
:10385000601CC4B20120FFF771FF4FF4807109486A
:10386000FDF734FE08B9642CF2DB2820FFF766FF71
:103870004FF480710348FDF729FE08B1012010BD07
:103880000020FCE70008014070B50024002506E098
:103890006006040EFFF7CAFF0443681CC5B2082D7A
:1038A000F6DB204670BD7CB505460E4600F028F8D4
:1038B000FFF768FFF8B9002405E0FFF7E5FF0DF812
:1038C0000400601CC4B2052CF7DB9DF800009DF8D5
:1038D000011008449DF8021008449DF803100844A4
:1038E0009DF80410884208D19DF8000030709DF8C2
:1038F0000200287001E001207CBD0020FCE70000F0
:1039000010B500BF00224FF480710948FDF7E6FDB5
:1039100000BF1420FFF708FF00BF01221102044876
:10392000FDF7DCFD00BF1E20FFF708FF10BD000003
:103930000008014010B500F041F81B4908701B4811
:1039400000780978484018490978084018490870F3
:103950001648007814490978484013490978884383
:103960001449087010480078104908701048007811
:10397000012806D0022808D003280AD0042810D134
:103980000BE000200C4908700BE001200A49087088
:1039900007E002200849087003E003200649087088
:1039A00000BF00BF10BD00007C0000207D00002093
:1039B0007E0000207F0000208500002010B500243C
:1039C00080211048FDF782FD00B9012440210D48F7
:1039D000FDF77CFD00B9022420210A48FDF776FDA1
:1039E00000B9032410210748FDF770FD00B9042435
:1039F0004FF480710448FDF769FD00B905242046A5
:103A000010BD000000080140000C014070B50546E3
:103A1000002400200AE0295C21B1012181402143DA
:103A2000CCB202E0012181408C43401C0328F2DB30
:103A30001948007884422ED004F0010028B10122F8
:103A400051031648FDF74AFD05E000224FF40051EE
:103A50001248FDF743FD04F0020028B10122910352
:103A60000E48FDF73BFD05E000224FF480410B4876
:103A7000FDF734FD04F0040028B10122D10307480A
:103A8000FDF72CFD05E000224FF400410348FDF74F
:103A900025FD0148047070BD83000020000C01402A
:103AA00010B501200F490870487088700E480078E2
:103AB00010B90020087006E00B480078012802D1F8
:103AC00000200849487009480088012803D10020D7
:103AD0000449887002E00120024988700148FFF71C
:103AE00095FF10BD80000020840000208800002089
:103AF0000246002000210AE0535C23B101238B40E1
:103B00000343D8B202E001238B409843491C0429A7
:103B1000F2DB07490978884209D04FF0F051054B94
:103B200019600F21814349021960014908707047EB
:103B3000140000201008014000B51348007808B9AF
:103B4000012000E00020114908700F48007801288A
:103B500000D100E000200D4948700B480078022891
:103B600001D1012000E00020084988700648007853
:103B7000032801D1012000E000200449C870084654
:103B8000FFF7B6FF00BD00008500002010000020F8
:103B9000FDF7BCFCFEF75FFFFEF7B4FCFEF798FCF8
:103BA000FEF75EFDFEF764FCFEF764FEFEF7C8FD5F
:103BB0004FF4E01000F080F94820FFF7AFFDFCF76C
:103BC000EDFD00F047F9FFF709FEC820FFF7ACFD57
:103BD00004210648FEF7C6FBFEF7B2FD05E0FCF740
:103BE000FFFDFEF729FC00F03BF9F8E70C0100208F
:103BF00010B54FF400715948FDF768FC0446584869
:103C0000007830B1012827D0022848D0032822D1DB
:103C100067E054A206210120FEF77AFD534803789D
:103C200053A201210220FEF773FD5648037856A2E5
:103C300001210320FEF76CFD4C4800783C2805DD8F
:103C400056A201210420FEF7B7FE04E057A201218D
:103C50000420FEF7B1FE7FE058A206210120FEF706
:103C6000ABFE54B957A201210220FEF7A5FE4BA2DC
:103C700001210320FEF7A0FE0BE0012C09D155A283
:103C800001210220FEF798FE48A201210320FEF741
:103C900093FE54A201210420FEF78EFE5CE055A2A3
:103CA00006210120FEF788FE5448038854A2012112
:103CB0000220FEF72DFD51480088B0F5FA6F05DCB3
:103CC0003AA201210320FEF777FE04E033A201218E
:103CD0000320FEF771FE43A201210420FEF76CFED3
:103CE0003AE04BA206210120FEF766FE4AA201211E
:103CF0000220FEF761FE4C48007810B1012824D163
:103D000011E04A480088012807D14749087048A2B5
:103D100001210320FEF750FE04E049A20121032007
:103D2000FEF74AFE11E04148008840B900203E49B4
:103D3000087043A201210320FEF73EFE04E03CA2EE
:103D400001210320FEF738FE00BF00BF25A201219C
:103D50000420FEF731FE00BF00BF10BD000C014083
:103D600085000020444854313100000091000020BB
:103D700054656D703A2025644320202020202020A7
:103D8000200000009200002048756D693A202564EB
:103D90002525526820202020200000005741524E47
:103DA000494E472120202020000000005341464575
:103DB00020202020202020202000000057415445B2
:103DC000520000005741544552203C484947483E64
:103DD000202020005741544552203C4C4F573E2054
:103DE00020202000202020202020202020202020F3
:103DF00020000000534D4F4B45000000860000207E
:103E000056616C75653A2025642020202020000032
:103E100048554D414E0000004841564520414E59FD
:103E20004F4E453F00000000840000209400002019
:103E30004841564520534F4D454F4E450000000028
:103E40004E4F424F44592020202020202020202067
:103E50000000000008200149087070471800002089
:103E600070B500241EE0FDF73FFB054604EB44005F
:103E70000F4901EB8000406804EB44010C4A02EB5F
:103E8000810189680844A8420AD804EB440011461D
:103E900001EB8000856004EB440152F8210080476B
:103EA000601CC4B2034800788442DCDB70BD0000B3
:103EB0001C0000201800002030B58FB005460124FA
:103EC000282105A8FCF745F914216846FCF741F9BB
:103ED00001200590000406900020079002200C901D
:103EE000C1030D910E9505A8FDF700FE04460CB127
:103EF00000BFFEE70F2000900220019000200290FA
:103F00004FF4806003900020049002216846FDF782
:103F1000D9FC04460CB100BFFEE70FB030BD000075
:103F200070B54FF400711048FDF7D0FA04460F4801
:103F300005880F4800783C2803DD00200D490880E3
:103F400070BDB5F5FA6F03DD00200A490880F7E778
:103F5000012C03D1002007490880F1E70120054921
:103F6000088000BFECE70000000C01408600002044
:103F7000910000208800002010B54FF40071114816
:103F8000FDF7A4FA044694B90F48007878B9AA203E
:103F90000E49096888634FF49670FFF7C5FB9620B9
:103FA0000A490968886301200749087008E0012C64
:103FB00006D19620054909688863002002490870E7
:103FC00010BD0000000C01408A0000200C01002000
:103FD00002030405060708090A0B0C0D0E0F10104A
:103FE000010202030405060708090A0B0C0D0E0F57
:103FF0001010010200000000000000000102030494
:104000000607080900000000010203040000000088
:10401000000000000000000000000000000000F8A8
:1040200000000000000000333000000000100C060B
:10403000100C0600000000000000000040C07840A6
:10404000C0784000043F04043F040400007088FC72
:1040500008300000001820FF211E0000F008F000CA
:10406000E018000000211C031E211E0000F008883B
:10407000700000001E2123241927211010160E00A5
:10408000000000000000000000000000000000E050
:104090001804020000000007182040000002041865
:1040A000E00000000040201807000000404080F0C1
:1040B000804040000202010F01020200000000F0F7
:1040C000000000000101011F0101010000000000CB
:1040D0000000000080B07000000000000000000040
:1040E00000000000000101010101010100000000C9
:1040F0000000000000303000000000000000000060
:1041000080601804006018060100000000E010083C
:104110000810E000000F102020100F00001010F811
:10412000000000000020203F202000000070080850
:1041300008887000003028242221300000300888D0
:10414000884830000018202020110E000000C020F8
:1041500010F8000000070424243F240000F8088819
:10416000880808000019212020110E0000E01088A6
:1041700088180000000F112020110E0000380808D8
:10418000C83808000000003F0000000000708808E8
:1041900008887000001C222121221C0000E0100869
:1041A0000810E0000000312222110F00000000C0C2
:1041B000C00000000000003030000000000000805F
:1041C000000000000000806000000000000080404F
:1041D0002010080000010204081020004040404068
:1041E00040404000040404040404040000081020BB
:1041F0004080000000201008040201000070480800
:104200000808F0000000003036010000C030C82867
:10421000E810E0000718272423140B000000C03822
:10422000E0000000203C23020227382008F888889C
:1042300088700000203F202020110E00C0300808A8
:1042400008083800071820202010080008F808087F
:104250000810E000203F202020100F0008F8888878
:10426000E8081000203F20202320180008F8888844
:10427000E8081000203F200003000000C0300808BC
:104280000838000007182020221E020008F8080045
:104290000008F808203F210101213F20000808F80C
:1042A000080800000020203F20200000000008082F
:1042B000F8080800C08080807F00000008F888C0EF
:1042C00028180800203F20012638200008F80800A0
:1042D00000000000203F20202020300008F8F800D7
:1042E000F8F80800203F003F003F200008F830C0E9
:1042F0000008F808203F200007183F00E0100808D9
:104300000810E0000F10202020100F0008F8080807
:104310000808F000203F210101010000E01008081A
:104320000810E0000F18242438504F0008F888883F
:1043300088887000203F2000030C3020007088081F
:10434000080838000038202121221C00180808F82D
:10435000080818000000203F2000000008F80800AE
:104360000008F808001F202020201F00087888007F
:1043700000C83808000007380E010000F80800F8EF
:104380000008F800033C0700073C03000818688099
:104390008068180820302C03032C30200838C8000F
:1043A000C83808000000203F20000000100808085E
:1043B000C83808002038262120201800000000FE00
:1043C000020202000000007F40404000000C30C0AC
:1043D00000000000000000010638C00000020202D8
:1043E000FE000000004040407F000000000004028A
:1043F00002020400000000000000000000000000B5
:1044000000000000808080808080808000020204A4
:10441000000000000000000000000000000080809C
:10442000808000000019242222223F2008F800800A
:1044300080000000003F112020110E0000000080CD
:1044400080800000000E112020201100000000805C
:104450008088F800000E112020103F20000080808E
:1044600080800000001F222222221300008080F0A2
:10447000888888180020203F2020000000008080CD
:1044800080808000006B94949493600008F8008012
:1044900080800000203F210000203F20008098986D
:1044A000000000000020203F2020000000000080CD
:1044B0009898000000C08080807F000008F800000D
:1044C00080808000203F24022D302000000808F862
:1044D000000000000020203F20200000808080801D
:1044E00080808000203F20003F20003F80800080AF
:1044F00080800000203F210000203F2000008080BD
:1045000080800000001F202020201F00808000806D
:104510008000000080FFA12020110E00000000801C
:1045200080808000000E112020A0FF80808080000D
:104530008080800020203F2120000100000080803A
:10454000808080000033242424241900008080E02F
:10455000808000000000001F2020000080800000FC
:1045600000808000001F202020103F2080808000DD
:104570000080808000010E300806010080800080ED
:10458000008080800F300C030C300F000080800012
:10459000808080000020312E0E312000808080003D
:1045A0000080808080818E701806010000808080ED
:1045B000808080000021302C22213000000000008B
:1045C000807C020200000000003F4040000000002C
:1045D000FF00000000000000FF0000000002027C5D
:1045E000800000000040403F000000000006010184
:1045F0000202040400000000000000001C46000845
:104600000000002098000000DC2D0008B4460008DF
:1046100098000020C0040000EC2D000800000000FD
:10462000100000000100000000127A0001000000EC
:10463000FF00000000000000353900080A000000FB
:1046400000000000393B00080A00000000000000E4
:10465000C5360008F401000000000000F53600082F
:104660006400000000000000793F0008C80000005E
:1046700000000000F13B00086400000000000000A2
:10468000213F00086400000000000000A13A00087B
:10469000640000000000000000000000000000FFB7
:1046A0000000000001000000000000000000000009
:0446B0000000000006
:04000005080000ED02
:00000001FF
